:02000002F0000C
:104000000000042089A40F00B1A40F00B3A40F0086
:10401000B5A40F00B7A40F00B9A40F000000000062
:104020000000000000000000000000001D4B0F0019
:10403000BDA40F0000000000BFA40F00B9490F008D
:10404000A94C0F00C3A40F00C3A40F00C3A40F000A
:10405000C3A40F00C3A40F00C3A40F00C3A40F0088
:10406000C3A40F00C3A40F00C3A40F00C3A40F0078
:10407000C3A40F00C3A40F00C3A40F00C3A40F0068
:10408000C3A40F00B5710F00C3A40F00C3A40F0099
:1040900071720F00C3A40F003D470F00C3A40F00AF
:1040A000C3A40F00C3A40F00C3A40F00C3A40F0038
:1040B000C3A40F00C3A40F00000000000000000014
:1040C000C3A40F00C3A40F00C3A40F00C3A40F0018
:1040D000C3A40F00C3A40F00C3A40F00758A0F0070
:1040E000C3A40F00C3A40F00C3A40F00000000006E
:1040F00000000000C3A40F0000000000C3A40F00D4
:1041000000000000000000000000000000000000AF
:10411000000000000000000000000000000000009F
:10412000000000000000000000000000000000008F
:10413000000000000000000000000000000000007F
:10414000000000000000000000000000000000006F
:10415000000000000000000000000000000000005F
:10416000000000000000000000000000000000004F
:10417000000000000000000000000000000000003F
:10418000000000000000000000000000000000002F
:10419000000000000000000000000000000000001F
:1041A000000000000000000000000000000000000F
:1041B00000000000000000000000000000000000FF
:1041C00000000000000000000000000000000000EF
:1041D00000000000000000000000000000000000DF
:1041E00000000000000000000000000000000000CF
:1041F00000000000000000000000000000000000BF
:1042000010B5054C237833B9044B13B10448AFF310
:1042100000800123237010BDCC800020000000002E
:1042200064B40F0008B5034B1BB103490348AFF357
:10423000008008BD00000000D080002064B40F00A2
:10424000154B002B08BF134B9D46A3F5803A002168
:104250008B460F461348144A121A00F063F80F4BAE
:10426000002B00D098470E4B002B00D09847002021
:10427000002104000D000D48002802D00C48AFF3C7
:10428000008000F02BF82000290000F0A7F800F0D3
:1042900011F800BF0000080000000420000000002A
:1042A00000000000CC800020E4C7002000000000D7
:1042B0000000000008B5074B044613B10021AFF31E
:1042C0000080054B1868836A03B19847204600F0C8
:1042D00031F800BF00000000D4B00F0070B50D4EE3
:1042E0000D4CA41BA4100025A54209D10B4E0C4C6B
:1042F00006F0E4FEA41BA4100025A54205D170BD64
:1043000056F8253098470135EEE756F8253098479E
:104310000135F2E7C4800020C4800020C480002062
:10432000C880002002440346934200D1704703F83E
:10433000011BF9E7FEE700BFBFF34F8F0549064BAE
:10434000CA6802F4E0621343CB60BFF34F8F00BF33
:10435000FDE700BF00ED00E00400FA054BDF704709
:1043600010DF704711DF704713DF704718DF7047A9
:1043700060DF704769DF704761DF704708B5034B46
:104380001B68DB0700D500BEFFF7D6FFF0ED00E0AD
:10439000014B1878704700BFE98000201FB500234B
:1043A00004A8CDE901330393022340F8103DFFF741
:1043B000DDFF05B05DF804FB08B5032000F004FB49
:1043C0004FF46D2000F0CCFC43F20803186800F0B5
:1043D000C7FC0420BDE8084000F0F6BA2DE9F0471C
:1043E0004FF0804386B0D3F81C95D3F81C25A9F173
:1043F000B10467426741B12A00F02881D3F81C4517
:10440000A4F1A800444244419B4D9C4E04F001039A
:104410002B704FF08043D3F81C857CB9B8F14E0F58
:104420000CD0D3F81C25572A08D032681168944A5A
:10443000914209D1D3F80034D90705D54FF0804314
:104440000022C3F81C2501248E4B4FF44072C3F8A0
:1044500040258D4B1B68B3F5742F02D0002003F06C
:10446000BBF900F0F5F900F005FF002000F0ACFA10
:1044700000F074FF78B1052000F0A6FA00F080FF8C
:1044800008B103F0A9F900F0A1FF08B103F0A4F905
:10449000062000F099FA1CB9292000F069F90446B9
:1044A0002B78002B40F0D480292000F061F910B166
:1044B000192000F05DF900F0010043F208032870B4
:1044C000186800F01FFE824644B938B133686C4A60
:1044D0001A606E4B6E4843F0010398473368002220
:1044E0001A601CB9BAF1000F40F091802C78002CB2
:1044F00000F0B480082000F067FAB9F1B10F01D0E4
:10450000FFF74CFF4FF47420FFF72EFF08B103F0C4
:1045100063F9604B60491868019001A8FFF720FF1C
:1045200008B103F059F95D4991F816335A09EC23A3
:104530001341DA0708D55A4B9A68002A00F08A809E
:104540001A6842F480021A600C22564B0293002132
:104550000DEB0200FFF7E6FE40F20113029A03930F
:1045600003A94020FFF706FF08B103F035F90C223C
:1045700000210DEB0200FFF7D5FE9DF80C30029AEA
:1045800043F0010303A9A0208DF80C30FFF7F2FEE1
:1045900008B103F021F90C2200210DEB0200FFF716
:1045A000C1FE01238DF80C30029AF72303A92320C2
:1045B000ADF80E30FFF7DEFE08B103F00DF90C2266
:1045C00000210DEB0200FFF7ADFE01238DF80C304A
:1045D0008DF80E30029A062303A92020ADF8103082
:1045E000FFF7C8FE08B103F0F7F802A8FFF7C0FE16
:1045F00008B103F0F1F827460021287800F052FEB8
:1046000008B103F0E9F82B7893B3FFF7ABFE29204C
:1046100000F0AEF828B9192000F0AAF808B1FFF7A9
:10462000CBFE00F063F943F20803186800F06AFD5E
:1046300050B100F093FE38B90FB9FFF7AFFE43F267
:104640000803186800F062FEFFF776FE0124DBE63F
:10465000012030E74FF480030B6075E7022000F083
:10466000B3F9A8F14E035842584103F0C9FDC3E71E
:1046700003F00CFECBE700BFE9800020648000203F
:10468000D51A5A0000A0004014100010E0B00F002E
:104690000048E801D8B00F007D430F0000E100E0C2
:1046A00014C700200080002010B5FEB04FF4FA734C
:1046B0000DF1020101A8ADF80230FFF75DFE0446DE
:1046C00040B9BDF80430102B07D0112B0CD001A835
:1046D00001F004F920467EB010BD054B01221A708E
:1046E000072000F071F9F2E7014B18700820F8E795
:1046F000E880002013B501A8FFF730FE044660B93A
:10470000019802F01FF8019B0A2B09D0092B09D050
:104710000B2B02D1012004F0DFFA204602B010BDBD
:104720002046F8E70220F6E708B5FFF7BDFF0528A9
:10473000FBD1FFF7DFFF0528F7D108BD0021024AB2
:10474000084602F0B1BF00BF29470F001F2884BFF1
:1047500000F01F00044B054A98BF4FF0A04300F53E
:10476000E07043F820207047000300500C00030065
:104770001F288ABF064B4FF0A04300F01F00D3F85C
:10478000103523FA00F0C04300F00100704700BF6D
:104790000003005000234FF0FF328360C0F8003563
:1047A000C0F86025C0F86425C0F86825C0F86C25FD
:1047B00040F2FF32C0F80435C0F80825C0F80C35C7
:1047C000C0F81035C0F81435C0F82035C0F82435CD
:1047D000704700001B4B00221F2930B5C3F800258D
:1047E0008BBF01F01F030B46174A4FF0A04203F5A1
:1047F000E074032542F82450012404FA03F3C2F8BC
:10480000083500F5AC700F4B002243F82010FF2153
:10481000C3F804250220C3F808150421C3F80C15B9
:10482000C3F810050948C3F81425C3F82005C3F8D8
:104830002415C3F82825C3F82C25C3F80045C3F870
:10484000102130BD00C0014000030050E082002074
:1048500038B54FF0804301240025DC602920C3F8DF
:1048600018559C60FFF772FF1920FFF76FFF174B79
:104870004FF4C8502343984707212846FFF7AAFF63
:104880000C212046FFF7A6FF114A1E21082002F046
:10489000E7FE08B102F0A0FF02F04CFE0D490E4BFE
:1048A000E02081F823001B684FF47A72B3FBF2F327
:1048B000013BB3F1807F07D2084A5360002381F89F
:1048C000230093600723136038BD00BFF0B00F00D2
:1048D000EC80002000ED00E06C80002010E000E0A3
:1048E0000148FFF757BF00BF00C0014008B50D4B9E
:1048F00000221A60FFF7F4FF0B4B4FF40032C3F8AD
:10490000802003F1C04303F53C534FF48032C3F8D9
:104910004823C3F8082301225A609A604FF080436D
:10492000DA6008BD10E000E000E100E0074B23F88A
:104930001010074B00221A6082B01B680193019B84
:10494000044B01221A6002B0704700BFE0820020D1
:1049500010C1014008C0014010B5144B1C68144B35
:104960001B68B4FBF3F2580803FB1242824288BF73
:104970009A1A4F214A43B2FBF0F1002089B2FFF7A7
:10498000D5FF0C4B1A68B4FBF2F3500802FB13433B
:1049900083424FF08F0188BFD31A4B43BDE81040CC
:1049A000B3FBF0F1012089B2FFF7C0BFDC82002029
:1049B000E8820020F0820020024A1368013313606D
:1049C000FFF7CABFDC8200201B4A1168082823D8E1
:1049D000DFE800F013051322221A1E242A00174BC9
:1049E00040F6B83018604FF47F4303F0103323F0E3
:1049F0008053994218BF13607047104B4FF4967064
:104A000018604FF47F03F0E70C4B64221A60704784
:104A10000A4B40F6B83018600B46E6E7084B40F604
:104A2000B8301860FF23E0E7054B4FF4967018602C
:104A30004FF0FF13D9E700BFEC820020E88200208E
:104A4000F082002038B50C4C21684B1C054612D072
:104A50004FF48052094805F0B5FE48B115B1206801
:104A600000F07EF94FF480620449206800F098F964
:104A70004FF0FF33236038BD68800020F4820020AF
:104A80002DE9F0410F4E904620F47F64326824F007
:104A90000F04A24205460F4609D01846FFF7D2FF81
:104AA0004FF4805221460848346005F09AFE0648CB
:104AB000C5F30B05424639462844BDE8F04105F0F0
:104AC00090BE00BF68800020F482002038B50C46FC
:104AD000F8B90968D9B1104A914215460CD0531A59
:104AE0003B2B12D93C22284605F07BFE04E0C85C33
:104AF000D05413F1FF33FAD200223C21064802F0D1
:104B0000B3FE0023A887236038BD3D23F1E70E23C1
:104B1000F9E70123F7E700BF807F00206FF0020371
:104B2000064A9E4502D1EFF3098101E0EFF30881C7
:104B30008869A0F102000078104700BFCD4A0F003D
:104B400038B50546A8B10D4C00223C21204602F0A4
:104B50008BFEA38F83420ED1224604F13C0152F812
:104B6000040B45F8040B8A42F9D10133A3870020D6
:104B700038BD0E20FCE70B20FAE700BF807F002045
:104B80000B2970B50446154630D90389053300EB6F
:104B900043030144CA1AD2B2012A27D98B4225D82D
:104BA0001946134805F01DFE2388522B06D1AB078A
:104BB00011D062884CF668639A420CD00F2014E042
:104BC00034F8022B824204D02E88964203F101036E
:104BD00008D1002009E0218900230A344FF6FE7035
:104BE00043F20C059942EBD80B2070BD0920FCE77D
:104BF000F492002008B5002202F036FE044A5178F3
:104C0000137843EA0123984214BF0B20002008BD0B
:104C1000F492002000F1804382B01A68002A14BF89
:104C20000120002004D000221A601B680193019B20
:104C300002B070470F4B1A78D2B902784FF080411A
:104C4000C2F34002C1F88025027802F00102C1F8E7
:104C50007825094A1168C90706D4E02182F80013B3
:104C60000121C2F88011116001221A7003487047B7
:104C70000348704710C7002000E100E00000AD0BC2
:104C80000C00AD0B034B00221A60026802B11A60DF
:104C9000704700BF089300204FF080434FF46072CC
:104CA000C3F804237047000010B54FF08043D3F8D9
:104CB0000443620707D54FF48470FFF7ABFF10B1D0
:104CC0001E4B1B689847A30608D54FF48A70FFF760
:104CD000A1FF18B11A4B00201B689847600608D541
:104CE0004FF48C70FFF796FF18B1154B01201B682D
:104CF0009847210608D54FF48E70FFF78BFF18B147
:104D0000104B00201B689847E20508D54FF49070BF
:104D1000FFF780FF18B10B4B01201B689847A305D4
:104D20000AD54FF49270FFF775FF28B1054B0220AA
:104D30001B68BDE81040184710BD00BF009300205D
:104D40000493002008930020044AD2F80034DB07C3
:104D5000FBD50160BFF35F8F704700BF00E00140EB
:104D60004FF080531A69B0FBF2F302FB130373B9DF
:104D7000084B0222C3F80425C3F80805D3F8002421
:104D8000D207FBD50022C3F8042503487047034827
:104D9000704700BF00E001400000AD0B0A00AD0B02
:104DA0000A4B70B50124C3F8044501EB82050C469B
:104DB000461AAC4204D1054B0022C3F8042570BD4D
:104DC000301954F8041BFFF7BFFFF2E700E0014081
:104DD000BFF34F8F0549064BCA6802F4E0621343E4
:104DE000CB60BFF34F8F00BFFDE700BF00ED00E0D9
:104DF0000400FA05034B1868A0F108035842584113
:104E0000704700BF30010010064B1B68082B06D10D
:104E1000054B1B68032B02D8044AD05C7047002066
:104E2000704700BF3001001034010010F6B00F00D1
:104E300008B5FFF7DFFF40B14FF080430022C3F811
:104E40000C21C3F81021C3F83825FFF7D3FF002841
:104E500046D04FF08052694BD2F80414C3F82015A5
:104E6000D2F80814C3F82415D2F80C14C3F8281586
:104E7000D2F81014C3F82C15D2F81414C3F8301556
:104E8000D2F81814C3F83415D2F81C14C3F840151E
:104E9000D2F82014C3F84415D2F82414C3F84815E6
:104EA000D2F82814C3F84C15D2F82C14C3F85015B6
:104EB000D2F83014C3F85415D2F83414C3F860157E
:104EC000D2F83814C3F86415D2F83C14C3F8681546
:104ED000D2F84014C3F86C15D2F84424C3F87025F6
:104EE000FFF792FF10B1464B464A1A60FFF78CFF5E
:104EF00018B1454BFB22C3F81825FFF785FF48B1D1
:104F00004249434B0A681B6822F00F0203F00F036B
:104F100013430B60FFF778FF18B13E4B4FF400725C
:104F20001A60FFF767FF48B14FF08043D3F80024C1
:104F3000D10744BF6FF00102C3F80024364AD2F80B
:104F4000883043F47003C2F88830BFF34F8FBFF34B
:104F50006F8F4FF01023D3F80C22D2071ED52F4BA2
:104F60000122C3F80425D3F80024002AFBD04FF017
:104F70001022D2F80C3223F00103C2F80C32274B76
:104F80001A46D3F800140029FBD00021C3F80415F9
:104F9000D2F80034002BFBD0FFF71AFFD3F8002221
:104FA000002A03DBD3F80432002B23DA1B4B012247
:104FB000C3F80425D3F80024002AFBD04FF01022B8
:104FC0001221C2F80012D3F80024002AFBD04FF0BF
:104FD00010231222C3F80422104B1A46D3F80014EF
:104FE0000029FBD00021C3F80415D2F80034002BAF
:104FF000FBD0D1E70A4B0B4A1A6008BD00C0004045
:105000008C5600404881030000F00040E40E004050
:10501000580200104096024000ED00E000E0014020
:105020006C8000200090D00311DF704713DF7047C1
:10503000064B1878012803D1012904BF02211970F9
:1050400012B1104602F0C8BB704700BF3893002071
:1050500070B5124C124D134ED4F800347BB1C4F825
:105060000056C4F80456C4F80856C4F80C56C4F8E0
:105070001056C4F81456C4F81856C4F81C5602F05A
:1050800079FB05F0FBF920B104F048F9002004F0A9
:1050900009FD3378023B022BDED870BD00000140D1
:1050A0003546526E3893002008B5FFF771F988B184
:1050B0001C21114801F0E2FB08B102F08DFB002336
:1050C0001C220E490C4801F0C9FB98B1BDE808400C
:1050D00002F082BB4FF47F20FFF742FE0722074910
:1050E0004FF47F20FFF75CFE054B1A78012A04BFBE
:1050F00002221A7008BD00BF309300203C930020AC
:105100003893002007B50368013303D1002003B0B2
:105110005DF804FB01A800F087F9019B1A88012AB9
:10512000F4D1588830B1996843F208030022186816
:1051300002F09AFB019B5B881B1A58425841E6E734
:1051400084B02DE9F34108AC84E80F009DF82040BD
:10515000BDF822800B9D01A8DDE9097600F064F915
:1051600054B9384B0122FF21A3F802809D601A80B8
:105170009980354B1A7012E0012C17D1314BBA19B6
:105180002A449A60A5221A80FF229A800C9AA3F8DA
:105190000280C3E903765D619A612B4B1C70FFF7B7
:1051A00083FF02B0BDE8F04104B07047032C0FD17B
:1051B000019A244B11881980518892689A60C3E93A
:1051C0000376AA2259809A805D611F4B0122D1E7A4
:1051D000022C15D1019A1B4B1188A5290AD1002256
:1051E0009A60FF221A60FF229A800022C3E90322FC
:1051F0005A61EAE719805188926859809A60F2E70B
:10520000052C0ED1FFF7C4F840B100F041FD08B104
:1052100002F0E2FA0C4B03221A70C2E700F0FAF92E
:10522000F5E7042C08D1074B00229A60FF221A6090
:10523000019A92889A80B2E7062CB2D1024B0422DE
:10524000EAE700BF3C9300203893002000B5084BEC
:105250001B7889B043B905238DF80C30079B009368
:1052600003AB0FCBFFF76CFF09B05DF804FB00BF89
:105270002C9300201FB50023CDE90233074B019387
:1052800001F0B4FA30B906494FF47F2301A84B600E
:1052900001F0D0FA05B05DF804FB00BF31500F00FB
:1052A0003093002070B505460E4600F07FFF04469F
:1052B00028B935B100F048FC0446FFF7C9FE204686
:1052C00070BDBEB10D4B0E4A0E481D70294602F04E
:1052D00061F94FF400444FF4FA7000214FF47A72F0
:1052E0000023E4FB060105F0EDF82A4601460648D6
:1052F00002F062F900F06AF9DEE700BF2C930020AB
:105300004D520F00FCB00F000C93002038B5FFF792
:105310008BFE08B102F060FA0F490D6800230124EA
:1053200004FA03F22A4207D05A0903F01F00203280
:1053300004FA00F041F822000133302BF0D143F29F
:1053400008042068FFF772FE08B102F045FA2068F1
:10535000BDE8384000F08CB800E100E007B501A8D6
:1053600000F062F8019B1A88A52A07D09888A0F15E
:10537000AA035842584103B05DF804FB0120FAE744
:1053800010B501F037F9A8B10E4B0F4843F00103F7
:10539000984701F0AFF808B102F01EFA01F02AF9BF
:1053A00008B102F019FA01F0EDF8044638B102F044
:1053B00013FA04E001F000F904460028E4D1204685
:1053C00010BD00BF00B10F0000A8610000B589B09A
:1053D00003AB142200211846FEF7A4FF02228DF829
:1053E0000C20002200920FC8FFF7AAFEFFF730FE44
:1053F000002009B05DF804FB13B5044601A800F0D5
:1054000013F8019B1A8822805A8862809A68A260E9
:105410009A88A280DA68E2601A6922615A69626138
:105420009B69A36102B010BD014B0360704700BFD0
:1054300000F00F00F0B50346186880F3088858683C
:10544000FF2464B2EFF30585002D01D1A646004785
:105450002546064621273FBAF0B400240025002641
:105460000027F0B4F92040B2004700BFF0BD00BFF4
:10547000FFF7E0BF73B500230DF1020101A8ADF8FD
:105480000230019302F034FEF8B9019C25785DB337
:10549000174B93F83020032A28D00C2606FB00F285
:1054A0009958E9B998189D5093F830200132D2B23A
:1054B00083F83020BDF802300E4A9B08013B0434CB
:1054C00043608460084602F0EFF8019B33B128B1D5
:1054D000184602F029FE08B102F07EF902B070BD54
:1054E00001300428DAD1F0E70720EEE70420ECE7EA
:1054F000589300203D550F0011B1084602F06CB9D9
:105500007047000010B50C230B4A4343D418D15800
:1055100081B192F83010A0680139C9B282F8301018
:105520000021D150C4E90111043802F0FDFD08B199
:1055300002F052F9002010BD58930020F8B5214B1D
:10554000214E01221A7035460C2796F8303003B9E7
:10555000F8BD002407FB04F3EA5882B1013AE818C9
:10556000042A06D8DFE802F019050F03240000F032
:10557000BFFEE0B2FFF7C6FF08B102F02DF901341B
:10558000042CE7D1E1E72B449A685A6000F05AFEF8
:105590000028EED002F020F9EBE700F031FF00F038
:1055A0000DFF08B102F018F90520FFF70DFAE0E74A
:1055B00000F056FF00F078FF0620BDE8F840FFF746
:1055C00003BA00BF2C9300205893002008B50E4B5F
:1055D000002283F8302003F130011A60C3E9012270
:1055E0000C338B42F9D1094800F026FE02F018FD79
:1055F00008B102F0F1F8064802F0FEFC08B102F032
:10560000EBF8002008BD00BF58930020F9540F00AC
:1056100075540F0008B50020FFF774FF0120FFF755
:1056200071FF0220FFF76EFF0320FFF76BFFBDE85D
:10563000084002F03DBD006870476CDF70476DDFC9
:1056400070476EDF70476FDF704772DF704773DF40
:10565000704774DF704776DF704777DF70477ADF17
:1056600070477CDF70477FDF704786DF70478FDFD2
:10567000704790DF7047AFDF7047B0DF7047B1DF32
:105680007047B2DF7047B5DF704764DF704766DF91
:1056900070470C2813D8DFE800F01412121212120F
:1056A00009120712120D0B000220704703207047E9
:1056B0000420704704290CBF0520062070470620EF
:1056C00070470120704702F087B810B504460846BD
:1056D0000321FFF7DEFF03210246204601F098FA7E
:1056E00018B1BDE8104002F077B810BD032810B51E
:1056F0000B46144620D0042825D169B1124B1888D6
:105700004FF6FF7398421ED01321FFF7A4FFD0B1CC
:10571000BDE8104002F060B8104602F001F908B18F
:1057200002F05AF8094B1B689C420CD1012203215C
:10573000074801F06DFAEAE701211846FFF7A9FFD3
:1057400001210246F4E710BD728000204C94002035
:10575000FC930020F8B50A4CA3889E181D2E154610
:105760000DDC2768FE1802F1010C07F803C0707009
:10577000B01C05F036F8A28802322A44A280F8BD97
:10578000AC930020F0B54A4D2C7893B0002C40F03B
:105790008A80484E102221463046FEF7C3FD464B14
:1057A0003360182221460CA8FEF7BCFD28230E9377
:1057B000424B1B7801278DF8307006AE002B74D059
:1057C00021463F4C102202A8FEF7ACFD102202A990
:1057D000E01D04F0F7FF002867D03A48394604601E
:1057E000FFF72FFF08B101F0F7FF374B374603F102
:1057F000100C186859683A4603C2083363451746C7
:10580000F7D12068A2880A903048A379ADF82C20FF
:10581000002101228DF82E300660FFF714FF08B139
:1058200001F0DAFF03238DF8443004238DF80630AD
:1058300041F23053ADF80830254B32469B798DF854
:105840000A300DF1070102A8FFF71FFF01221046E1
:105850000DF10601FFF77EFF1E4805F007F81D4910
:10586000C2B20920FFF776FF102231460620FFF76B
:1058700071FF0CAA0F491848FFF7E7FE08B101F0C5
:10588000ABFF154C042221780120FFF7E6FE08B19A
:1058900001F0A2FF01212078FFF7D9FE08B101F045
:1058A0009BFF01232B7013B0F0BD0623BEE700BFA2
:1058B00030940020AC9300208C930020F8930020BB
:1058C000BC93002048940020C39300202C94002017
:1058D000FC93002006B10F0070800020F0B5044654
:1058E0000146B1B08E4801F0C7F92388212B00F0A2
:1058F000048142D8112B00F09C8007D8012B00F0C6
:10590000BE80102B00F08E8031B0F0BD142B00F063
:10591000D4801A2B5BD0132BF6D1824B03AC9A792F
:10592000186899888DF822200790DA1DADF82010AC
:105930001733264610685168254603C508329A4237
:105940002C46F7D1784B09AA03F1180715461868B9
:105950005968144603C40833BB422246F7D118687D
:1059600020607248724A008810AB8521CDE9145638
:10597000FFF779FE0028C7D0B5E0512B00F08580F5
:105980001ED8232B00F0B280262BBDD1237A012B09
:10599000BAD1684B00221A70674B19680139196037
:1059A000002969D110AB14221846FEF7BBFC052272
:1059B0008DF84020149A00920FC8FFF7C1FBA3E7AF
:1059C000552B00F0A380562B4CD0522B9CD1574B1B
:1059D0001C884FF6FF75AC4200F08480574B1B7853
:1059E000002B79D00123082255492046FFF747FEB6
:1059F000002878D10246014602232046FFF73FFEE9
:105A0000002870D12A460C212046FFF734FE43F2CD
:105A1000020398423FF478AF08283FF475AF11288D
:105A2000A8D171E7414BA2881A80424B00221A701C
:105A30006AE730AA802322F89C3D3C4C3E4B2088EC
:105A400032211960012310A9FFF71BFE08B101F0F4
:105A5000C3FE3C4B1B780BB9FFF794FE4FF6FF7368
:105A6000238051E7A379002B7FF44EAF2F4B1321F6
:105A70001888FFF7F0FD7DE7FFF784FE44E72B4B26
:105A800000211888FFF703FE74E7A379002B3FF489
:105A90003BAFA27B043A022A3FF636AF022B18BF77
:105AA00001238DF840304FF4C173ADF844301F4BE3
:105AB00010A91888FFF7E1FD5CE71A4A258A518D85
:105AC00002F1180000238D420CBF0146194607322F
:105AD000A088FFF7CAFD4DE71A4619462046FFF792
:105AE000CEFD47E7082001F077FE0DE70F4B0022BF
:105AF00011461888FFF7BDFD3CE730A9002321F8C7
:105B0000803D0A4B1888FFF7B2FDFDE6E188074BA0
:105B1000F72928BFF7211888FFF7B5FD2AE700BF4E
:105B2000FC930020BC930020D493002072800020BE
:105B30003E9400203094002074800020F8930020D0
:105B4000F09300204394002030B5434A434800239B
:105B50001370434A95B0137000F06EFB01F0A0FE85
:105B60000546002862D13F48FEF7EAFF002860D1D1
:105B70003D4B01221A7014AC112304F84C3D3B48F4
:105B800004F074FE394982B22046FFF76AFD08B17D
:105B900001F022FE0822002104A8FEF7C3FB344ACC
:105BA0004FF0C87304A8CDE90423FFF758FD08B1EE
:105BB00001F012FE00210C222046FEF7B3FB082361
:105BC000ADF804302B4B029321462B4B2B4803930B
:105BD00000F06CFE08B101F0FFFD294C40220021CD
:105BE00004A8FEF79FFB204604F040FE0594254CD8
:105BF000ADF81000204604F039FE0794224CADF8B1
:105C00001800204604F032FE1123ADF8300004A83D
:105C1000ADF84C300D9401F049F91C4B30221A704C
:105C200007225A7010229A70FFF7ACFD284615B073
:105C300030BD04A8FFF703FD08B101F0CDFD9DF8CC
:105C4000113004A801338DF81130FFF7F6FC00285D
:105C500091D001F0C1FD8EE743940020ED560F0076
:105C60003D940020BC930020F893002006B10F0063
:105C700008001800E15C0F00C7560F00FC930020DD
:105C800021B10F0036B10F003DB10F003E9400204E
:105C900010B50F4B01221A700E4B18884FF6FF7388
:105CA000984207D01321FFF7D6FC08B101F094FD0C
:105CB000002010BD084C2278002AF9D0074B187834
:105CC000FFF7C7FC08B101F087FD00232370EFE761
:105CD00043940020728000203094002070800020C7
:105CE000F0B50B7889B005460C46092B23D8DFE8C0
:105CF00013F02B00330042000A0018002400FD00BE
:105D0000060145000B0100F0ABFB0421FFF7C1FCCD
:105D100004210246284600F07BFF60B101F05CFDE3
:105D200009E0FFF7B5FF08B101F056FD00F0BCFB3C
:105D300008B100F0D1FB09B0F0BDFFF7A9FF0028C2
:105D4000F7D001F049FDF4E7724B01221A704B685D
:105D50001A78714B1A70EEE76E4B02261E704B6874
:105D60001B78012BE7D100F029FB3146FFF791FCAE
:105D700002463146CEE7674B0322EBE70520FEF7EC
:105D800023FE644B1E78022E2AD0032E4ED0012E05
:105D9000D1D104AB102218460021FEF7C3FA5E4AA7
:105DA000237A12788DF81020002203920C2B4FF0EA
:105DB0000302CDE90120DCD163681846FFF73BFC04
:105DC0000590181DFFF737FC069003F10800FFF758
:105DD00032FC079001A800F035FA0028ABD0C4E7E8
:105DE000237A13F003010FD00022C1F1040194467D
:105DF00098181646C0B267680132914207F800C091
:105E0000F6D101333344237201230493636806936C
:105E1000237A04A89B08059300F0F2FA00288AD0A0
:105E20000221FFF736FC0221024673E7207A83073E
:105E300002D0324631466DE7384E0190314601F0CE
:105E400045FD014618B12846FFF73FFC73E761683E
:105E5000019A306804F0C5FC019801F09FFD0146ED
:105E60000028F0D101A9304601F0A8FD0146002824
:105E7000E9D104230493019B9B08059304A833688C
:105E8000069300F035FA074640B9254A237A11688F
:105E90000B441360234B32681A604CE709281BD16E
:105EA0001F4B217A1A68114419601F4B1B78002B75
:105EB0003FF441AF1D4C2388013B9BB22380002B54
:105EC0007FF439AF284600F069FE08B101F084FC88
:105ED000174B1B8823802EE7306801F021FD014617
:105EE00010B12846FFF7F1FB3946ACE70E4B012213
:105EF0001A700F4A8B8813800C4A13801BE70A4ADA
:105F0000002313700A4AF8E7054B196800F00AFEEF
:105F100003E700BF3D9400204494002050940020EB
:105F2000349400204C9400203C9400203A940020AB
:105F30003894002018DF70470129F8B50D46144643
:105F40001F4607D0032912D014B32046BDE8F840FD
:105F500001F042BC0F4B1B78052BF5D10E4B1B6893
:105F6000002BF1D03A46214604209847ECE7094E31
:105F70003378022BE8D1094B5B689847064B3570A4
:105F80001E68002EE0D03A4621462846B047DBE79F
:105F9000F8BD00BF5C940020549400208094002041
:105FA00000B5084B89B001221A7005238DF80C301A
:105FB000079B009303AB0FCBFFF7C2F809B05DF866
:105FC00004FB00BF5D94002000B589B003238DF869
:105FD0000C300A4B1B88ADF80E30094B5A680492FE
:105FE0009A68DB680693079B0093059203AB0FCB7F
:105FF000FFF7A6F8002009B05DF804FB8C940020A0
:10600000D894002000B589B001238DF80C300B4BDB
:106010001B88ADF80E3043F208031A68084B596824
:1060200004919968DB6806930591009203AB0FCB4E
:10603000FFF786F8002009B05DF804FB8C9400207F
:10604000D894002000B589B003AB14220021184673
:10605000FEF768F904228DF80C20002200920FC888
:10606000FFF76EF809B05DF804FB000030B589B0A9
:1060700003AC142200212046FEF754F9094B1B887B
:10608000ADF80E30084BDB6806930025079B8DF8B2
:106090000C50009394E80F00FFF752F8284609B01F
:1060A00030BD00BF8C940020D8940020174B73B5EE
:1060B000174C1C60174B02221A70FEF769F9164B39
:1060C00048B11968204600F0D9FBB0B102B0BDE874
:1060D000704001F081BB1B681D0BC3F30B0303B1C0
:1060E0000135002443F20806A54208D1002300939D
:1060F0001A4603210648FFF71FFF02B070BD306843
:1061000000EB0430FEF72CFE0134EDE7F0940020A4
:10611000E89400205C9400209094002010B50B4B74
:106120001B788BB90A4801F08BFA08B101F054FBD7
:1061300000224FF41601064801F03EFA044608B169
:1061400001F04AFB204610BD0824FBE75D940020C7
:10615000609400207FB50C4603210546CDE9001070
:106160009608684602940396FFF7E4FED8B1B4F5AA
:10617000805F11D801236846CDE90035CDE902469C
:10618000FFF7D8FE78B903236846CDE90035CDE99D
:106190000246FFF7CFFE06E01A46E11AE81AFFF7BB
:1061A000D9FF0028E6D004B070BD0000F0B585B07E
:1061B00004A8184B40F80C3D174B184F184E0024FC
:1061C0001C70184B3946CDE902441C8000F032FBAC
:1061D000054618B13470284605B0F0BD43F20803F7
:1061E00001461B68104A11487B6001F0D3F908B1E1
:1061F00001F0F2FA00224FF416010D4801F0DCF92B
:1062000008B101F0E9FA0B4B00221A600123337048
:10621000E1E700BF395F0F00D4940020E89400202C
:106220005C9400208C940020A15F0F0060B10F00EF
:106230006094002058940020014B1860704700BF04
:106240005494002070B54368204C0FCB84E80F00B5
:106250002278510701D5930731D163689E072ED16B
:10626000A1688D072BD1E068840728D10B44184E14
:106270000344B1F5304F336023D843F20801096875
:10628000C1F56D218B421CD8124D134B2B60D107E9
:10629000124B6B600ED5124BAB60124B1B78012B6F
:1062A00011D1FFF73BFF044610B92B6830689847BF
:1062B000204670BD93074CBF0B4B0C4BECE70624FC
:1062C000F6E70C24F4E70824F2E700BFD894002096
:1062D0009094002080940020AD600F0045600F0076
:1062E00005600F005C940020C95F0F006D600F0017
:1062F0002DE9F3478046002850D083689B074FD193
:106300002A4B1B78052B4DD1294F4568294E3B68F8
:106310003268AD002B449342B94607D94FF0FF33A2
:106320003B600C24204602B0BDE8F087FFF7F6FE84
:1063300004460028F6D1D8F80880DFF87CA0FEF7E4
:1063400027F848B13B68DAF800002A46414600F0D9
:1063500085FAA0B10446E5E743F20803D9F8000046
:106360001F682A46234641463844FEF789FB0095BC
:10637000434622460121DAF80000FFF7DDFDD9F897
:1063800000301D443368C9F800509D420CD1FDF720
:10639000FFFF0028C6D1FEF755FBC3E70E24C1E777
:1063A0001024BFE70824BDE70924BBE75C94002064
:1063B0005894002090940020F094002070B50B4B6E
:1063C0001D6885B90A4E3378042B0CD1094C0A4B51
:1063D00021781A780948FEF7D3FB10B905233370EA
:1063E00070BD2570FCE70820FAE700BF5894002034
:1063F0005C940020D4940020D89400209494002031
:10640000F8B5134B1A78032A074603D0042A03D0A1
:10641000082419E004221A700E4B1B68002BF7D1D8
:10642000FFF77CFE044678B90B4E7D683378AD00EB
:106430005A19402A0AD80948B9682A46184404F06B
:10644000D0F933781D4435702046F8BD0924FBE7A8
:106450005C94002058940020D49400209494002050
:1064600038B50D4C2378052B14D10C4B0C4D1A6804
:106470002B689A420ED106232370FFF74FFE40B9D6
:10648000084B29681B685868FEF7B4FB08B9072356
:10649000237038BD0820FCE75C940020589400204D
:1064A00090940020F094002010B5084B1B78072B27
:1064B0000AD1074801F0C4F808B101F08DF9054B85
:1064C000BDE810409B681847082010BD5C94002070
:1064D000609400208094002000B589B006238DF8D8
:1064E0000C30079B009303AB0FCBFEF729FE09B0DE
:1064F0005DF804FB10B58CB005A8FEF77DFF089A87
:10650000002A3BD00B9C02F58053A3422AD91C4998
:10651000A4F5805301EA530343F2080109688A4253
:1065200008D85800121A00F580512044FFF712FED7
:106530000CB010BD03F580500121CDE90110CDE96B
:10654000030101A8FFF7F6FC0028F1D14FF48050B9
:10655000CDE9020001A801910491FFF7EBFC0028AE
:10656000E6D1DEE70123CDE9013492084FF48053F0
:1065700001A803930492FFF7DDFCD9E71046D7E7A3
:1065800000F0FFFF00B58DB005A8FEF735FF0998B4
:1065900060B1089B6BB943F208031B6880080022B6
:1065A000039001A8CDE90123FFF7C4FC0DB05DF80D
:1065B00004FB0B9A1344F1E700B58DB005A8FEF774
:1065C0001BFF099878B1089B83B943F208031B6845
:1065D0000393800803214FF47422049001A8CDE9AD
:1065E0000112FFF7A7FC0DB05DF804FB0B9A1344F2
:1065F000EEE7000030B58DB005A8FEF7FDFE089867
:10660000A8B10B9C00F58053A34212D943F20803B2
:106610001B68984219D80E4BA4F5805203EA520326
:106620005D00421B05F580516019FFF793FD0DB029
:1066300030BD800803224FF48053049001A8CDE9B7
:1066400001230394FFF776FCF1E70E20EFE700BF8C
:1066500000F0FFFF29DF704728DF704737B50B4692
:106660000C465A6814F80C1BDD680092044A5B69FA
:1066700052F8255002462046A84703B030BD00BF5F
:10668000F494002038B5184C2378182202FB0343F9
:106690001A795D69012A03D0032A18D00F2015E06A
:1066A000124A996910689A68DB680003121AB2F5F9
:1066B000805F1D44014438BF9208284428BF4FF42E
:1066C0008062FFF7C7FF08B90123A37038BD4FF000
:1066D00080531869054B80B2B5FBF0F51868284463
:1066E000FFF7BAFFEFE700BF04950020FC950020FC
:1066F00070B5134D6C780A2C1FD02E783444E4B258
:10670000092C84BF0A3CE4B2182606FB0454A2619B
:10671000207103C9A360049BE360AB7804F110020D
:1067200082E8030023B100206B7801336B7070BDE9
:10673000FFF7A8FF1128F7D1F5E70420F7E700BF1E
:1067400004950020F8B527498B780C462BB100261C
:1067500002288E7002D003283AD0F8BD0D78224A64
:10676000182101FB0541136889680133B1EB033F30
:1067700013601BD863781660013B63706B1CDBB23F
:1067800018270426092B17FB056188BFA5F109030B
:10679000214400202370FFF761FF07FB054300221F
:1067A000C3E904621A719A609A61DA606378002B17
:1067B000D3D0A378002BD0D1FFF764FF0028CCD032
:1067C0001128CAD02178182303FB0141043105E0C8
:1067D0000B78182202FB031104310D20BDE8F840AC
:1067E000FFF73CBF04950020FC9500200D4A0023D4
:1067F00013600D4A04201380937002F1F0011371AD
:1068000093609361D360C2E9040318328A42F6D1DF
:10681000064A1360064A0020C2E90033C2E9023387
:10682000704700BFFC95002004950020F8950020DB
:10683000F4940020074A1368042B1FBF0B60591CF7
:106840001160054A1DBF016842F823100020184658
:10685000704700BFF8950020F494002013B5CC18C1
:106860000C43A40708D1009313460A4601460120B1
:10687000FFF73EFF02B010BD1020FBE707B5002276
:106880000B46009201460320FFF732FF03B05DF88C
:1068900004FBA8DF7047AADF7047ADDF7047AEDFAB
:1068A0007047B0DF704762DF704700002DE9F047A6
:1068B0000F4694B00546002800F02E81002900F014
:1068C0002B814B68002B00F027814FF6FF7303806C
:1068D000924B04AA03F1100C164618685968144626
:1068E00003C4083363452246F7D114AB41F230525A
:1068F0000DF10A01304623F8482DFFF7D4FF044676
:10690000002840F005812A1D19460120FFF7C1FF2C
:106910000446002840F0FC809DF80A30AB71014627
:106920001C220DA8FDF7FEFC9DF834300E9443F0B8
:1069300004038DF8343001AEAB798DF80E3021466A
:1069400041F2325303223046CDE91044CDE91244DE
:10695000ADF80C30FDF7E6FC9DF8043064F303035A
:1069600064F307138DF804309DF805304FF0010AE9
:106970006AF303036AF307138DF805309DF80630B8
:106980006AF3420364F3C30364F30413DBB243EA20
:106990000A032146142208A88DF806300DF10C08D0
:1069A000FDF7C0FC4FF0140905F1080308AA0DA972
:1069B000A8880A940C94CDE90886ADF82C90FFF7CE
:1069C0006AFF0446002840F0A38001461C220DA85F
:1069D000FDF7A8FC9DF834300E9443F018038DF8B1
:1069E0003430AB798DF80E30214641F23153032219
:1069F0003046CDE91044CDE91244ADF80C30FDF736
:106A000091FC9DF8043064F3030364F307138DF8DD
:106A100004309DF805306AF303036AF307138DF819
:106A200005309DF806306AF3420364F3C303DBB21A
:106A300043F0110321464A4608A88DF80630FDF7B9
:106A400071FC1723ADF82C3008AA05F110030DA92D
:106A5000A8880A940C94CDE90886FFF71CFF044629
:106A6000002855D101461C220DA8FDF75BFC9DF8BE
:106A700034300E9443F002038DF83430AB798DF846
:106A80000E30214641F2345303223046CDE9104402
:106A9000CDE91244ADF80C30FDF744FC9DF804300C
:106AA0006AF303036AF307138DF804309DF8053089
:106AB00064F3030364F307138DF805309DF8063083
:106AC0006AF3420364F3C30364F30413DBB243EADF
:106AD0000A0321464A4608A88DF80630FDF722FC35
:106AE00002230A93ADF82C3008AA05F120030DA962
:106AF000A8880C97CDE90886FFF7CDFE044638B983
:106B00007B68AB62BB6803B1EB62054B01221A7074
:106B1000204614B0BDE8F0870E24F9E764B10F00F9
:106B20000096002070B5054686B070B302884FF617
:106B3000FF739A422BD0174B1B7843B3164C10228D
:106B4000080AE170207121FA02F0090E07230126DC
:106B50006071A17102A800216370ADF80630227047
:106B6000A670FDF7DFFB2B8AADF808300023ADF8E7
:106B70000C3002A90DF1060328888DF80A60CDE9D2
:106B80000434FFF78CFE06B070BD0E20FBE7082032
:106B9000F9E700BF009600200196002030B50546B9
:106BA00087B060B302884FF6FF739A4229D0164B24
:106BB0001B7833B3154C112323700B0A6170A3703B
:106BC0000B0C090EE370217105230021102202A88D
:106BD000ADF80630FDF7A6FB2B8AADF8083001238F
:106BE0008DF80A300023ADF80C3002A90DF1060330
:106BF0002888CDE90434FFF752FE07B030BD0E20DF
:106C0000FBE70820F9E700BF00960020019600206E
:106C100030B5044687B038B300884FF6FF7398420A
:106C200024D0134B1B780BB3124D10236970032132
:106C3000ADF80610AA7000211A4602A82B70FDF7C5
:106C400071FB238AADF8083001238DF80A30002348
:106C5000ADF80C3002A90DF106032088CDE904350A
:106C6000FFF71DFE07B030BD0E20FBE70820F9E757
:106C7000009600200196002070B50D4688B00446AD
:106C800040B139B1826A2AB10B88112B59D003D88F
:106C9000102B43D008B070BD502B42D0512BF9D1EE
:106CA0008B79022BF6D10A89038A9A42F2D18B7B27
:106CB000043B022BEED99DF8163043F001038DF80A
:106CC00016300B8AADF818304B8AADF81A30022610
:106CD00001F114030822002101A807938DF8106028
:106CE000FDF720FB01AAA18A20880196CDF808D0E3
:106CF000FFF7D3FD034638B3E36A03B1984740F288
:106D0000FD1304A92088ADF81430FFF7CAFD002850
:106D1000C0D0E36A002BBDD09847BBE78B882380A7
:106D2000B8E7C98803899942B4D108238DF8103097
:106D3000123535F8023C8DF81830059504A99047B6
:106D4000A8E74FF6FF73EAE79DF800202088D207F6
:106D5000D5D504A9ADF81430FFF7A3FD0028D8D18C
:106D6000297D4B1E072B41D8DFE803F0041A2327A7
:106D7000292B3E2D00238DF804306B8A012B05D87A
:106D8000062201212046FFF743FFC0E70123153506
:106D90008DF80C300295A36A01A92046984779E73F
:106DA0006A8A01239A428DF80430F0D80622022123
:106DB000E8E702238DF80430EDE70323FAE7042324
:106DC000F8E70523F6E76B8A022B02D80322082195
:106DD000D8E7AA7D6B7D43EA0223ADF808300BB9F2
:106DE0000723E7E70623E5E70923E3E70322C9E7EB
:106DF000A8DF7047AADF70472DE9F04381468FB0C6
:106E0000154698460E4611B9084600F0E5FC15B93E
:106E1000284600F0E1FC1C220DEB02000021FDF7EA
:106E200081FA9DF81C30ADF80490002443F0020371
:106E300001272146032268468DF81C300894CDE9CD
:106E40000A44CDE90C448DF80670FDF76BFA98F80A
:106E500000308DF8003098F801308DF801309DF841
:106E6000023067F3420303F0E70364F300032146B3
:106E7000142202A88DF80230FDF754FA0A48CDF822
:106E80000CD001AB029302AA169B0088ADF81050FB
:106E900007A9ADF81240ADF814500696FFF7AAFF07
:106EA0000FB0BDE8F08300BF4096002030B587B03A
:106EB00006A941F60A03044621F80C3D01205A4A6E
:106EC0008DF80E00FFF794FF0546002849D122886F
:106ED000002A49D1228952B1544B0093E16804F150
:106EE0003C0342F62420FFF787FF002847D1228A7F
:106EF00052B14F4B0093616904F13C0342F62520E7
:106F0000FFF77AFF00283AD1228B52B1494B009308
:106F1000E16904F13C0342F62720FFF76DFF0028EA
:106F20002DD1228C4AB1444B0093616A04F13C0399
:106F300042F62620FFF760FF08BB228D4AB13F4B87
:106F40000093E16A04F13C0342F62820FFF754FF66
:106F5000A8B9236BABB9616B002938D1A36B002BA7
:106F600042D1284607B030BD354B0093616804F12B
:106F70003C0342F62920FFF73FFF0028AAD0054630
:106F8000EFE71A688DF810201A68120A8DF81120A0
:106F90005A888DF81220DA788DF813205A688DF807
:106FA00014209B688DF815301A0A1B0C8DF81730C9
:106FB000244B8DF816200093082204F13C0304A909
:106FC00042F62320FFF718FF0028C4D0D7E71E4B56
:106FD0000A790093096804F13C0342F62A20FFF77E
:106FE0000BFF0028BAD0CAE71A788DF810205A880B
:106FF0008DF81120120A8DF812209A888DF813202E
:10700000120A8DF81420DB888DF815301B0A8DF8D4
:1070100016300E4B0093072204F13C0304A942F6FC
:107020005020FFF7E9FEAAE74096002020960020B6
:1070300038960020109600200896002042960020E6
:10704000189600204A9600203096002028960020AE
:10705000094A537891780133DBB2994208BF002383
:10706000117899421FBF03705078182303FB00204A
:1070700014BF04300020704754960020082910B532
:10708000044602D0002000F0A7FBD4E90030BDE8A0
:107090001040184773B5054602A8002400F8014DBA
:1070A0000E4600F0A7FB0DF10600FFF7D1FF90B1EF
:1070B00006700A4B9DF8062045605A709DF807003F
:1070C00000F0BCFB24B9064B4FF48012C3F800213A
:1070D000204602B070BD0424F0E700BF54960020A3
:1070E00000E100E0204B21491A682F2300BF00BFB8
:1070F00000BF00BF00BF00BF00BF00BF8A422FD04B
:1071000000BF00BF00BF00BF00BF00BF00BF00BF87
:1071100000BF00BF00BF00BF00BF00BF00BF00BF77
:1071200000BF00BF00BF00BF00BF00BF00BF00BF67
:1071300000BF00BF00BF00BF00BF00BF00BF00BF57
:1071400000BF00BF00BF00BF00BF00BF00BF00BF47
:1071500000BF00BF00BF00BF00BF00BF00BF00BF37
:10716000013BC3D1704700BF6C8000200024F400B5
:107170000C4B0D484FF4003210B5C3F880200124A9
:107180004FF48033C0F84833C0F808334460FFF749
:10719000A9FF064B846000201860FFF7A3FF044B93
:1071A000187010BD00E100E0001001407097002051
:1071B000619700202DE9F3412549264B0025C1F8B0
:1071C0004051C1F84451C1F84851C1F84C51C1F87F
:1071D0000051C1F804511B68002B34D0D1F804458C
:1071E0001D49DFF888800968641A24F07F442F461F
:1071F0001A68A24212D8A41A15441A7CDE6962B138
:107200005A691F7400929B6901934246082168469F
:1072100000F04AFA08B100F0DFFABEB90F4B104A8D
:10722000197813788B4205D10133DBB2022B08BFEA
:107230000023137012780B4B43F822500A4B4FF483
:107240008012C3F8002102B0BDE8F0813346CFE7D9
:107250000010014074970020709700206C97002068
:107260006D9700206497002000E100E07D700F0022
:107270002DE9F74FA44AA54913780978A44C9942FF
:107280003BD00133DBB2022B08BF00231370A149AE
:107290001278A14B0F6853F822003B1823F07F436C
:1072A00000220B60236815461646944613B942B176
:1072B000236006E0196881420DD902B12360091AE2
:1072C000196001272368DFF8589201930026BDB9A1
:1072D000DFF858A263E0401A0E44D968C3F800C032
:1072E000D3F81CE031B1BA1922F07F42C3E9012181
:1072F000DD611D4601227346D8E700252F46E1E7F0
:107300002846ED69834A43681268DFF824E2D0F822
:1073100008C0991A21F07F41714500F2A9806144AB
:1073200001600122027422680023C0E90133C361B5
:10733000002A40F0A7802060C9E75A1C9AF8021082
:10734000D4F800B0D2B291428AF8002004BF0022E3
:107350008AF80020182202FB03A31A799868022AEF
:1073600073D0032A00F08180012A18D1017CB1B9C1
:10737000DA6842601A6982605A69C2609B698361F7
:10738000664B1B78002BBDD04160BBE7984200F0F4
:107390009E809846DB69002BF8D1002303749AF88D
:1073A00000309AF801209A42C7D1236826B9019A81
:1073B000934201D1002F42D0002B00F08580D3F8FA
:1073C0000090574C534BD4F804651868554F351A44
:1073D0003B7825F07F4503359BB94FF48033C4F8E3
:1073E0004433C4F80433504B4FF400324FF00108DB
:1073F000C3F880211A60C4F80080FFF773FE87F895
:107400000080A9452CBF4844401920F07F40C4F8B3
:107410004005D4F804359B1B23F07F43801B0333C6
:1074200020F07F4083420AD9D4F80435C4F84035AF
:10743000FFF758FE3C4B4FF40032C3F80021374BA6
:1074400000221A7003B0BDE8F08F5B46D846A2E771
:107450008BF81020DBF81CB00123BBF1000FF7D133
:10746000002B9CD0C4F800B099E700231A46F4E73B
:10747000D31A23F07F43634534BFACEB03030023EF
:1074800003604EE70168136899421BD8591A1160CE
:10749000C26150E7A1EB0C01D3F81CC01A46BCF145
:1074A000000F0AD06346D3F800C08C45F2D3ACEB92
:1074B000010CC3F800C09C4613460160C0F81CC014
:1074C000D86104E71346EEE7FFF752FEB7E7404501
:1074D0000CD1DBF81C30236043B90E490122C9F8F6
:1074E00008200B600D4B1A70FFF7FCFDC2690368A2
:1074F000C8F81C2012B111680B44136023689B4527
:1075000018BF012649E700BF6C9700206D97002047
:1075100074970020709700206497002060970020E7
:10752000001001406197002000E100E05496002027
:10753000FEFF7F0008B5FFF71BFE104B00200B225B
:1075400018809A700E4B18600E4B18700E4B187006
:107550000E4B4FF48012E021C3F8802183F81413FE
:107560001A6002F18042A2F56F22C2F8080583F882
:107570001113074BD2F804251A6008BD5496002059
:10758000749700206C9700206D97002000E100E0C8
:1075900070970020074B9B784BB132B128B103683C
:1075A000187C20B959745A61704707207047082029
:1075B000704700BF549600202DE9F7431D4FBB785C
:1075C00005460E4690469BB390B304292ED94369D5
:1075D00073B3437C02A80024012B00F8014D0CBFBB
:1075E0008946A14600F006F90DF10600FFF730FDCF
:1075F000D0B101230370104B4560D3F80435C0E9C6
:107600000498C0E902369DF806307B709DF80700AB
:1076100000F014F924B9094B4FF48012C3F800218B
:10762000204603B0BDE8F0830424EFE70724F7E722
:107630000824F5E7549600200010014000E100E026
:10764000064A92783AB130B1426922B100220274FE
:107650000221FFF71FBD0820704700BF549600208D
:1076600012F0030310B511D1094C22604C1CE40048
:10767000A4B22244074C2260074A1370074A1370D1
:10768000074A1080074A1846118010BD0720FCE702
:10769000809700207C970020789700208897002012
:1076A00084970020869700202DE9F3472B4D2B88E7
:1076B0008B4206460C4617464BD302A84FF00008F3
:1076C00000F8018D00F096F8254B264A18781178BD
:1076D000CBB2254909888B4238BF0133C0B238BFCD
:1076E0005FFA83F840452ED092F800801378DBB221
:1076F000994286BF0133DBB2002313709DF8070067
:1077000000F09CF84FF6FF73984524D0DFF860A096
:10771000DAF800304FEAC80903EB090243F8387081
:10772000A6B19CB1114B28881B68224608FB00308B
:10773000314603F056F8DAF800304B4400209C80C4
:1077400002B0BDE8F0874FF6FF78D7E700209080C1
:10775000F6E70920F4E70420F2E700BF8497002051
:107760008897002078970020869700207C9700203B
:1077700080970020F8B5124C124D264622782B78BF
:107780009A4200D1F8BD23780F48104A0788126842
:107790000F48DBB219B202EBC10C006852F831207D
:1077A000BCF8041003FB070090470A4A23781288AC
:1077B000DBB29A4286BF0133DBB200233370DDE7D0
:1077C00088970020789700208497002080970020D9
:1077D0007C970020869700201FB50021CDE902107C
:1077E00001AA44F20100ADF80410FCF7C7FD05B092
:1077F0005DF804FB70B5EFF3108672B60C4A94681E
:1078000001239CB993600B4B0B4DD3F8801029409A
:107810001160C3F88050D3F8841051604FF0FF32EC
:10782000C3F88420047006B962B670BD0370FAE72D
:1078300014C7002000E100E0FC06FFBD10B5084BB6
:107840009A685AB150B9EFF3108172B6054A1C68B4
:1078500014605C685460986001B962B610BD00BFE6
:1078600014C7002000E100E02AB1138801448842D7
:1078700004D1184670474FF6FF73F7E75BBA10F86C
:10788000012B9BB25A40C2F30313534083EA0333E4
:107890001BB25A0102F4FF5253409BB2E7E70000CB
:1078A000064B074A00201870064B1A600822C3E9ED
:1078B0000120C3E90300C3E9050070478997002050
:1078C0008C9700206CAA00200020704730B5F9B1D9
:1078D000124B5C6800220A60E4B1B0F5167F1BD839
:1078E000D8681D680130013CD86018695C604FF4AD
:1078F000177404FB00540C60012101FA00F499692B
:10790000013000F00700214318619961104630BD35
:107910000E20FCE70420FAE70C20F8E76CAA002010
:10792000F0B51D4B9A68A2B359691E688D1A05F00F
:1079300007052C464FF4177707FB046C604512D1FE
:10794000012101FA04F09969414099610020214622
:107950005E68D3F818C04FF0010E7144002416443D
:1079600001F007010AE0013404F00704A142E3D169
:107970001020EDE74AB1013A0D4601240EFA05F553
:1079800015EA0C0FA6EB0207F4D00CB1C3E90172A3
:10799000F0BD0420FCE700BF6CAA0020064A136972
:1079A0001268013B4FF4177103F0070301FB032337
:1079B000C3F85802002070476CAA002030B5C0B14F
:1079C000B9B10E4BDA68B2B1013ADA609A681D6853
:1079D00001329A605A694FF4177404FB0254046030
:1079E0000132D4F85802086002F007025A61002000
:1079F00030BD0E20FCE70420FAE700BF6CAA00208F
:107A00003FB40C49086890B10B4B1C687CB10B4A21
:107A10001568CDE9025000238DF804300B60136027
:107A200004AB13E90700234604B030BC184704B088
:107A300030BC704790AA002094AA0020A0AA002081
:107A4000DC2810B509D0DD2810D0C02816D1FFF7EA
:107A5000D7FF0E4B0E4A1A6010BD0E4A0E4B196826
:107A60001368581C1060C022CA54F2E7094A0A4B36
:107A700019681368581C1060DB22F5E7064B054AAD
:107A8000196813685C1C1460C854E2E77880002011
:107A9000B17A0F0090AA0020A0AA0020C02802BF3F
:107AA000014B024A1A60704778800020B17A0F00BB
:107AB000C02810B409D0DB280BD0094B094A19683B
:107AC00013685C1C1460C85406E05DF8044BFFF7B3
:107AD00097BF054B054A1A605DF8044B704700BF1D
:107AE000A0AA002090AA002078800020417A0F00F0
:107AF00007B502A9012201F8010D002001F0C4FF21
:107B000000280CBF0420002003B05DF804FB000037
:107B100010B5064A064C12682368D05CFFF7E8FFF0
:107B200010B923680133236010BD00BFA4AA002050
:107B300098AA002008B5C020FFF7DAFF28B9034B48
:107B40001B6813B9024B034A1A6008BD98AA0020AB
:107B50007C800020117B0F0008B5DB20FFF7C8FFF9
:107B600010B9024B024A1A6008BD00BF7C80002099
:107B7000757B0F0010B50C4A0C4C12682368D35C5F
:107B8000C02B03D0DB2B0CD0042009E0DC20FFF756
:107B9000AFFF28B92368064A01332360054B1A60FA
:107BA00010BDDD20F3E700BFA4AA002098AA0020A2
:107BB000117B0F007C8000207FB5164C164D174EB0
:107BC000002001F043FF18B322689AB12968336896
:107BD00099420FD2012201A9002001F041FF10B902
:107BE0004FF0FF3001E09DF804000D4BC0B21B6860
:107BF0009847E5E70B4B1B6853B10292064A0221F6
:107C0000126803928DF8041004AA12E9070098473D
:107C100004B070BDA0AA002090AA00208CAA002069
:107C20007880002094AA0020014B18600020704743
:107C300094AA0020034B1A780AB901221A70002076
:107C4000704700BF88AA0020014B002018707047C1
:107C500088AA00202DE9F04F85B000284FD0294F89
:107C60003B78012B07D0022B0CBF042508252846A2
:107C700005B0BDE8F08F244C244A254E254DDFF891
:107C8000A0A0DFF8A0B011600023236002233B70A6
:107C9000214B30602B60914698462268D9F800301D
:107CA0009A4215D3C5F80080FFF744FF054608BB8C
:107CB0001A4B1B6801223A70E3B18DF80420326838
:107CC00002922268039204AA12E907009847CEE7BD
:107CD000336822689A5CC02A03D022689B5CDB2B45
:107CE00004D12B68534508BFC5F800B02B689847EE
:107CF000042801D10025BAE71128CED1FAE71025D2
:107D0000B5E700BF88AA002098AA00209CAA0020FE
:107D1000A4AA00207C800020357B0F0094AA0020BC
:107D2000117B0F00597B0F00054B064A1860064B6C
:107D30001960064B00201860054B1A60704700BFA1
:107D4000A0AA00209D7A0F008CAA002090AA0020F3
:107D500078800020064B07481B68DB00DBB200225E
:107D6000037004215B4242708270C370FFF772BFE0
:107D7000D0AA0020A8AA002070B52D4C2D4E024696
:107D800025462378012B14D002D3022B20D070BDBE
:107D9000002AFCD12848FFF753FC08B1FFF71CFD6F
:107DA000264B1B68002BF2D0254ABDE870401078A6
:107DB0001847012AEBD13168224B06311868FFF7CA
:107DC00049FF08B1FFF708FD02232B700022D8E716
:107DD000022A19D0032A0ED0002AD8D11A4B1648ED
:107DE0001A6041F67F21FFF7E7FB0028CFD0BDE8FE
:107DF0007040FFF7F1BC154A1368013303F0070325
:107E0000136000232370E1E70F4A1368052B0AD0A3
:107E100001331360074B19680A4B06311868BDE837
:107E20007040FFF717BF064B01221A70E9E700BF49
:107E3000F4AA0020E8AA0020ACAA0020E4AA0020AE
:107E4000ECAA0020FCAA0020F0AA0020D4AA00205E
:107E5000F0B585B004AB03E907009DF804000328E2
:107E600078D8DFE800F00802A7AA012005B0BDE835
:107E7000F040FFF781BF039E564C032E40F28680F0
:107E8000029D6B7813F00F0269D00E2A7ED1042E6A
:107E900059D02A78500656D5110654D51A44AB78D5
:107EA0001A44EB781A4412F0FF024CD1B71E39463F
:107EB0002846FFF7D9FCEB195A78EB5D43EA022319
:107EC000984240D144492A780B6802F00702D8B2A0
:107ED00082422BD1013303F007030B60FFF73AFF17
:107EE0003E4B012230461A70FFF758FD08B1FFF7EC
:107EF00073FC38494FF41670FFF7E8FC00285ED099
:107F0000042802D00020FFF767FC35480521FFF761
:107F10000BFF08B1FFF760FC324B1B68002B56D0FB
:107F20004FF0000005B0BDE8F04018474FF416715F
:107F30002068FFF7F9FE08B1FFF74EFC05B0BDE879
:107F4000F040FFF707BF20684FF41671FFF7ECFE13
:107F500000283CD005B0BDE8F040FFF73DBC2978D3
:107F6000AA780B441344EA78134413F0FF030DD1AD
:107F70001D4A12680132C1F3C20102F007029142A8
:107F800004D11A4A03201370FFF7F6FE25681DB1CD
:107F90004FF416712846D9E70E494FF41670FFF7D3
:107FA00095FC80B1042802D02846FFF715FC0C4848
:107FB0000521CBE705210A48C8E70320CAE7206866
:107FC0004FF41671A3E720684FF41671BEE705B0B1
:107FD000F0BD00BFF8AA0020D0AA0020CCAA002043
:107FE000D8AA0020E0AA0020D4AA0020ECAA0020F1
:107FF0000220FFF7C1BE0000074B10B50446186011
:108000000648FFF711FE08B1FFF7E6FB002C0CBF96
:108010000E20002010BD00BFE0AA0020517E0F00FE
:10802000184A1948002310B51360184A1360184AFB
:108030001360184A1370184A1370184B184A01211C
:108040001960184B1960184B1970FFF7A3FA08B1A3
:10805000032010BDFFF724FC0028FAD1FFF7EAFD4A
:108060000028F6D1114C4FF416702146FFF72EFC74
:108070000028EDD120684FF41671BDE81040FFF7DD
:1080800053BE00BFFCAA002074B10F00E8AA002074
:10809000F0AA0020CCAA0020F4AA0020D0AA002038
:1080A000F17F0F00D4AA0020ECAA0020F8AA00203B
:1080B0000C4A08B5002313600B4A1360FFF704FC59
:1080C00008B1FFF789FBFFF7BFFD08B1FFF784FB9D
:1080D0000648FFF7B5FA042802D10020FFF77CFB21
:1080E000002008BDE4AA0020E0AA0020ACAA0020DD
:1080F00037B50D46044698B191B10A4B1978002264
:10810000019259B101A91A70FFF758FC019B063B77
:108110002B8023680433236003B030BD0420FBE7C9
:108120000E20F9E7CCAA00200438FFF7F9BB0000C5
:108130000048704780800020044B054A1878054BA2
:10814000002814BF10461846704700BF00AB00203F
:10815000DCB10F007AB10F00074B187020B1074B4C
:108160002A229A720022DA724FF0805304495A6E22
:1081700004481B6E02F05ABB00AB00208080002038
:108180003AB20F0084AB002038B570B9134B1448D5
:108190001968022202F025FB0120431C114A5B00F2
:1081A00043F440731380104638BD052814D80B4B98
:1081B00053F82040204602F059FBC0B21F2809495D
:1081C00028BF1F200023DAB29042E6D901EB430218
:1081D000E55C55800133F6E70020E5E79480002058
:1081E00004AB002002AB00204DDF70474EDF70472C
:1081F0004FDF704750DF704743DF704712DF704733
:108200001FB5204B4022044604A883F827230023EF
:1082100000F8093DFFF7F2FF9DF80730F3B10120A8
:10822000FFF7E4FF0120FFF7DFFF0120FFF7E0FF8A
:1082300002A8FFF7DFFF029BDA0702D5002000F05B
:108240004BFD029B9B0702D5022000F045FD204616
:10825000FFF782FF02F0FCF804B010BD04A800F89C
:108260000C3DFCF7E7FC04A8074B40F8043DFCF785
:1082700009FDFCF711FD4FF08043D3F83834029329
:10828000D9E700BF00E100E0D98C0F0008B5114B21
:10829000D3F80025EAB10022C3F80425D3F8041569
:1082A0000D498020C1F88400D3F80013C3F80813E7
:1082B000C3F80025D3F80035FFF79EFF1046FFF7FF
:1082C00095FF1046FFF790FFBDE808401046FFF706
:1082D0008FBF08BD0070024000E100E00120FCF704
:1082E00073BB0220FCF770BBF0B5164C87B020685A
:1082F0000F466168164603AA03C213491D46086863
:10830000237A4968137001AA104B009303C203A893
:1083100002F0ACFA03A90246384602F062FA01A85C
:1083200002F0A4FA01A90246304602F05AFA684661
:1083300002F09CFA69460246284602F052FA07B05B
:10834000F0BD00BF45B20F0032B20F00312E300039
:108350000120704710B51C460B781E2B0AD0002355
:108360002022052101F08CFD4FF6FF70A04228BFAE
:10837000204610BD0020F9E7F8B5069E14460D46CC
:108380003246002118461F46FBF7CCFF6CB10A4B62
:108390001B68DB0700D500BE4FF0FF300AE028461F
:1083A00000F08AF8013504F50074B44207EB0401CB
:1083B000F5D32046F8BD00BFF0ED00E02DE9F04117
:1083C000069E0C4F0D4698460024B44208EB04016B
:1083D0000ED23B460022284600F03AF9002803DC82
:1083E00006D03046BDE8F081013504F50074ECE7B5
:1083F0002046F7E798AB002030B5104D2B6889B0C8
:10840000CBB16A68934216D8062003ACFCF7DCFABD
:10841000142200212046FBF785FF00238DF80C3045
:10842000ADF80E302B681B020693079B009394E86F
:108430000F00FCF785FE09B030BD00BF98AB0020EF
:108440004FF4FA530B604FF4007313807047012010
:108450007047000013B5104C2368BBB943F2080302
:108460001868FCF74FFEA0B101A8FCF7DDFF019BE7
:108470009B6813F0FF0F1CBF23F0FF0303F580730D
:108480005A1E033288BF4FF407232360206802B0CE
:1084900010BD4FF48073F8E7BCAC002030B500236A
:1084A0002025934200DB30BD0C781CB1C45401314F
:1084B0000133F6E7C554FBE72DE9F0410C460546CC
:1084C0004FF4007200212046FBF72CFF65B93E22D5
:1084D0005949204602F085F9552384F8FE31AA2334
:1084E00084F8FF31BDE8F081402D32D86B1E1F2B80
:1084F00088BFA5F121030BB31D026FF0010305F541
:10850000807603FB0544032D05F1010712D9FFF71F
:10851000A1FFC0F316200330A8420BD3FFF79AFF48
:10852000C0F316200330A84214BFBBB24FF6FF734E
:1085300024F81530BE423D46E5D1D3E7F82222703B
:1085400004F109012246FF208A42D5D002F8010F2A
:10855000FAE7442D38D8413D07D120460B22374950
:10856000FFF79CFF2823E3722034354B2E010027B0
:1085700003EB05256FF06908022EB3DC0B222946B8
:108580002046FFF78BFF502357225E216374E3746C
:108590006376B31C677384F80E80E1732274A2744F
:1085A0002775677584F81680E17522766383E8681D
:1085B00030B102F05BF9E061013620341035DBE7C1
:1085C000FFF748FF4000F6E7A5F14502012A0DD864
:1085D0001B4B03EB0213DD68284602F047F92946DE
:1085E00002462046BDE8F04102F0FBB805F219262C
:1085F0003602B6F52D2FBFF475AF124B236003F191
:10860000144303F52C1303F602336360473D0E4B0E
:10861000C4F8FC316561FFF71DFF4FF40053000AF9
:108620004FF48072A360094BA061E6602261E361B0
:10863000314604F12000D5E74EB20F0079B20F00A9
:1086400000B30F005546320A306FB10A4028A5AD7D
:1086500038B51D460A68354B9A420C4662D103F183
:1086600014434A6803F52C1303F602339A4259D196
:10867000D1F8FC212E4B9A4254D18B689A0451D5E3
:10868000C9692C4A91424DD1DB071DD42369B3F54A
:10869000807F19D8E26812F0FF0F15D1B2F5183FAC
:1086A00012D31344B3F52D2F0ED8234B1A7822B1D1
:1086B000002205201A70FCF787F901232269E0687F
:1086C00004F12001FCF7DCF915B94FF4007038BD56
:1086D000A369002BF9D02A68934207D040F6D30152
:1086E0008B4200D80AB14FF0FF332B60636940F62C
:1086F000D3029342E9D803F0070105EBD30301222B
:108700008A40197AD2B2114204D168680A43013012
:108710001A726860D5E900329A42D6D30120FCF77C
:1087200091F9D2E74FF0FF30D1E700BF5546320A4A
:10873000306FB10A4028A5ADAC800020064B186808
:10874000082802D104331B6823B9A0F10D03584255
:1087500058417047012070473001001042DF7047D8
:1087600043DF704744DF704712DF704707B502A848
:10877000002300F8013DFFF7F7FF9DF807000030E8
:1087800018BF012003B05DF804FB0000064B93F80E
:10879000C0202AB9054B1B68DB0704D500BE704713
:1087A000002283F8C0207047C0AC0020F0ED00E04C
:1087B00007B5FFF7DBFF48B101A8FFF7D3FF01982A
:1087C000003018BF012003B05DF804FB4FF0804378
:1087D000D3F80C0400F00110A0F1011358425841E5
:1087E000F1E700000D4B93F8C020014662B10C4A3E
:1087F0005268C2F308021AB101220A4800F026BDED
:1088000093F8C020002AFBD1012283F8C0200A601F
:10881000BFF36F8FBFF34F8F704700BFC0AC002016
:1088200000ED00E0E5870F00F8B50F490F4E00F5A9
:108830009473182551F823404543142303FB001378
:108840007259C3F80027E4B2C3F80447084B03EB9E
:108850008000FFF7C7FF7359771923447351FB88D2
:108860001C44A4B2FC80F8BD00700240C0AC0020E3
:108870002870024010B4104B182101FB00314A8AC5
:108880000B8ACC689B1A0A7D9BB2934228BF134681
:108890001422424302F1804202F51C32C2F8004623
:1088A000C2F804362344CB60044B5DF8044B03EB61
:1088B0008000FFF797BF00BFC0AC002004700240EB
:1088C00070470000014B80225A60704700E100E0D1
:1088D000024B8022C3F88420704700BF00E100E013
:1088E000074BD3F80014D3F800240A43C3F800243C
:1088F0000022C3F858214FF48002C3F804237047C4
:10890000007002407047000010B58878097900F0C7
:108910007F0318240C22C0095C4302FB0044114A67
:1089200022441172012202FA03F40F4978B90C3380
:1089300002FA03F3C1F80433D1F814352343C1F824
:108940001435BFF36F8FBFF34F8F012010BD02337B
:1089500002FA03F3C1F80433D1F810352343C1F808
:108960001035EEE7C0AC002000700240F7B51D46A0
:1089700001F07F001823CE091B4C0F4603FB00F1CA
:108980000C2303FB0613E118E25000238D80CB80FB
:1089900078B975B91548FFF725FFFFF7F7FE009581
:1089A0002B462A463946284600F004FC012003B035
:1089B000F0BDAEB9182303FB0044637A13B1FFF78F
:1089C00033FFF3E70A4B30B90122DA64BFF36F8F4C
:1089D000BFF34F8FEAE700F5947043F82060F5E7A6
:1089E000FFF748FFE2E700BFC0AC00205070024034
:1089F0000070024011F07F0F064B0BBF012241F4C3
:108A000080715A65C3F81815BFF36F8FBFF34F8F8E
:108A1000704700BF007002404B060AD0054BC3F8F8
:108A2000181541F48071C3F80C15BFF36F8FBFF3B5
:108A30004F8F70470070024010B50022114693001E
:108A400003F1804303F51C330132082A596099620F
:108A5000F5D1064B064C5962C42299642046002188
:108A6000FBF760FC40232375237210BD00700240A9
:108A7000C0AC00202DE9FF47924B934ED3F8000382
:108A800000231C4601251F4605FA03F108420CD0BD
:108A90009A199200D2F800C0BCF1000F05D00C4327
:108AA0001760BFF36F8FBFF34F8F0133192BEBD1DB
:108AB000E10706D5FFF7C0FF01221146002000F0B4
:108AC0004DFBA20204D501220321002000F046FB49
:108AD000630217D57B4ED6F8005405F44073EF05BA
:108AE000C6F8003407D501220421002000F036FB2F
:108AF0000123C6F82C35AD0504D50122052100203F
:108B000000F02CFB714B23400BB1FFF73FFE20021E
:108B10002BD56C4BD3F88014C9B28DF80810D3F85C
:108B20008424D2B28DF80920D3F888048DF80A0085
:108B3000D3F88C048DF80B00D3F890048DF80C005A
:108B4000D3F894048DF80D00D3F898048DF80E0036
:108B5000D3F89C348DF80F30490601D1052A04D092
:108B6000012202A9002000F00CFB564E584F0C25A4
:108B70004FF0010C0CFA05F3A5F10C022342D1B21F
:108B800024D0142303FB02634FF0000ED3F8080730
:108B9000182303FB027803FB0573A3F58C7988F88F
:108BA00009E099F80090C0B28145A3F58E736ED1AB
:108BB000B8F80600B3F80080804568D9002961D173
:108BC000C6F84CC0BFF36F8FBFF34F8F0135142D24
:108BD000CED1404B2340002B51D03A4BD3F86C649C
:108BE000C3F86C64BFF36F8FBFF34F8F14F48064CE
:108BF00007D0D3F88044D3F880341B06C4F3C014E4
:108C000052D50027DFF8BC90DFF8C4A000254FF054
:108C1000010808FA05F33342E8B201D195B98CB1E5
:108C20001423182202FB05A203FB0593D3F8043694
:108C3000518A0B449BB25382538A118A994235D987
:108C4000FFF718FE0135082DE3D1DFF884800024FA
:108C500001254FF0180904F1100305FA03F333421C
:108C6000E0B201D144B93FB109FB0483DA889988A5
:108C7000914225D9FFF7D8FD0134082CEBD104B07F
:108C8000BDE8F08705F58E7346F823E09AE71820D3
:108C900000FB0272D08818800123D2880093002341
:108CA000184600F087FA91E70127ABE70023528AC4
:108CB000CDF8008040F08001184600F07BFAC1E753
:108CC0005D72D9E700700240409C0010FCFB1F0061
:108CD000C0AC002000040001012813B5024600F0DA
:108CE000A28051D3022840F09680644BD3F8002430
:108CF0001205FBD54FF40062C3F80024BFF36F8F59
:108D0000BFF34F8F5E4B1B68082B0AD15D4B5E4A49
:108D10001868002840F0818049F2753119601060B0
:108D20001960FFF70BFD48B1564B584A18680028E8
:108D300076D149F27531196010601960504B1B688B
:108D4000082B09D1524B40F2E3721A6040225A605C
:108D5000BFF36F8FBFF34F8F484B4E498022C3F84C
:108D60001C25C3F804134C49C1F884214A601A46F3
:108D7000FFF71EFD0028FBD00123C2F80435BFF326
:108D80006F8FBFF34F8F46E03C4BD3F80025002A8E
:108D900041D14FF40062C3F80024BFF36F8FBFF3DB
:108DA0004F8FFFF7CBFC48B1364B384A1868032188
:108DB00028BB49F27530186011601860304B1B6891
:108DC000082B09D12F4B304A1868C021C8B949F285
:108DD0007530186011601860284B0122C3F8002517
:108DE000BFF36F8FBFF34F8FFFF7E2FC98B9FFF728
:108DF000BDFC40B102B0BDE81040FFF7AFBC116050
:108E0000DCE71160E8E7254B18601B680193019BC4
:108E10004FF080431A6002B010BD0023136080E75A
:108E2000002313608AE7154BD3F800150029F2D010
:108E30000021C3F80415BFF36F8FBFF34F8F16489F
:108E40008024C0F88440D3F80003C3F80803C3F8B3
:108E50000015BFF36F8FBFF34F8FFFF787FC48B14B
:108E6000FFF77EFC01220221002002B0BDE8104085
:108E700000F074B90A4B1A60F4E700BF00700240BA
:108E80003001001000EC064014EC064014ED0640E2
:108E9000007802400514800100E100E0000100407C
:108EA0000400004010B504468089E288236802FB74
:108EB000003001F096FCA389A1885A1C92FBF1F3C3
:108EC00001FB13239BB2A3816389994215BF638978
:108ED000A38901339BB216BF9BB2E381638110BDAE
:108EE000C3809DF8003003720023438101608381B9
:108EF0008280C3810120704710B50446084663890B
:108F00009BB2ABB1E2882368E18902FB013101F039
:108F100068FCE389A1885A1C92FBF1F301FB13233F
:108F20009BB2E3816389013B9BB26381012010BD49
:108F30001846FCE7F8B543899BB204460F46154630
:108F40002BB343899A4288BF45894FF0000688BFFA
:108F5000ADB2B3B29D4201D82846F8BDE28823687D
:108F6000E189384602FB013101F03BFCE389A1882D
:108F70005A1C92FBF1F301FB13239BB2E38163893B
:108F8000013B9BB26381E38801361F44E1E71D4644
:108F9000E2E708B5438982889A4201D1037A13B186
:108FA000FFF780FF0123184608BDF8B505460F46B8
:108FB000144662B1037A33B9428983889B1A9BB203
:108FC0009C4228BF1C460026B3B29C4201D82046D2
:108FD000F8BD39462846FFF765FFEB8801361F4488
:108FE000F2E7002343818381C381012070470000A1
:108FF00038B50E4D0446312200212846FBF792F980
:109000001022FF21681CFBF78DF91022FF2105F1CA
:109010001100FBF787F9204600F07CFC204600F0A9
:10902000A7FD2046BDE8384000F03EBF84AD0020DB
:1090300070B505460E4614462AB90378012B02D1B5
:109040001046FFF745FC3146281DFFF7A2FF0646F4
:109050002CB92B78012B02D12046FFF733FC26B91F
:10906000034B1B68DB0700D500BE304670BD00BF58
:10907000F0ED00E0024B1878C0F34000704700BFED
:1090800084AD0020024B1878C0F38000704700BF09
:1090900084AD002010B50B4C0B4831220021FBF7AA
:1090A00041F9201DFFF79DFF084B1C6000F034FDC7
:1090B00000F0F2FE0020FFF703FC0020FFF702FCA7
:1090C000012010BDB080002084AD0020B8AD00208C
:1090D00010B54378013B04460A46072B36D8DFE833
:1090E00003F01104351820112911194B19786FF369
:1090F0000001197019786FF34101197019786FF335
:1091000082011970134B21461868BDE81040FFF723
:109110008FBF0F4B1978C90718D5197841F0040192
:10912000EFE70B490B78D80710D50B786FF3820364
:109130000B70E7E7074B01461868FFF779FF637983
:1091400023B1054B1B68DB0700D500BE10BD00BF77
:1091500084AD0020B8AD0020F0ED00E01FB5002385
:109160008DF804008DF8051001A81146CDF80630E1
:10917000CDF80A30ADF80E30FFF7AAFF05B05DF864
:1091800004FB1FB5002314460822CDF80630CDF8A5
:109190000A30ADF80E308DF8040006230DEB020006
:1091A0008DF8053001F01DFB214601A8FFF790FF67
:1091B00004B010BD1FB500248DF804000720CDF8C1
:1091C00006408DF805008DF8081001A89DF81810CC
:1091D000ADF80A4003928DF80930FFF779FF04B02B
:1091E00010BD00002DE9F047DDE9085680460C4629
:1091F00091469A460027B94501DC01200CE06378CE
:10920000052B04D1E17801F00301514508D00E4B44
:109210001B68DA0702D40020BDE8F08700BEFAE739
:1092200021464046FFF770FB28B9074B1B68DB0758
:10923000F1D500BEF0E7A178CB0914BF31702970D9
:10924000237801371C44D6E7F0ED00E01FB500237A
:109250000193CDE902010823114601A88DF80530DC
:10926000FFF736FF05B05DF804FB000010B50C46B3
:10927000FFF77CFB60B1074904F07F0301EB43017A
:1092800001EBD41191F8213043F0010381F8213032
:1092900010BD00BF84AD0020054B01F07F0203EB41
:1092A000420303EBD11191F8210000F00100704757
:1092B00084AD002010B50C46FFF79CFB094904F073
:1092C0007F0301EB430101EBD41191F8213043F00E
:1092D000020381F8213091F8213043F0010381F835
:1092E000213010BD84AD002010B50C46FFF794FB73
:1092F000094904F07F0301EB430101EBD41191F81C
:1093000021306FF3410381F8213091F821306FF360
:10931000000381F8213010BD84AD00202DE9F04F0D
:1093200085B001F0ABF8002800F03982BE4EBF4D89
:10933000BF4B1C682378012B02D10020FFF7C8FA2D
:1093400001A9201DFFF7D8FD2378012B804602D10B
:109350000020FFF7B7FAB8F1000F00F020829DF867
:109360000530013B072B00F2408201A252F823F0A6
:1093700091930F009B930F0031930F00BB970F0049
:10938000CF970F00AF930F0061970F00DD970F008D
:109390009DF80400FFF72CFECAE79DF80400FFF7D4
:1093A00027FEA44B002BC3D0FEF79BFFC0E72B7812
:1093B0009DF8044043F0010300202B7000F0B2FA46
:1093C0009DF8083003F06000602805D13368D907A4
:1093D00040F1FF8000BEFCE0402810D1964B002BEE
:1093E00000F0F780954808B100F09CFA02A92046E9
:1093F000AFF300808046B8F1000F99D1E9E003F0A7
:109400001F03012B00F0598131D3022BDED19DF8CF
:109410000CA00AF07F07072FD8D87F004FEADA1B8D
:10942000EB195B4493F81190B9F1010FCED828B134
:10943000834B03EB4913586900F074FA9DF8083028
:1094400013F0600F40F089819DF80930012B00F086
:109450007881C0F05981032BB8D1BDF80A30002BB8
:1094600040F0768151462046FFF724FF70E1002846
:10947000ACD19DF80930092BA8D801A252F823F0ED
:10948000A3960F0093960F00CD930F0081960F00C7
:10949000CD930F00A9940F00C1950F00CD930F003D
:1094A000B5940F00CD940F009DF80A102046FFF7E9
:1094B00017FA3DE72B7804AAC3F3400302F80E3DE8
:1094C000012302A9204600F0EFF931E79DF80A7068
:1094D00020463946FFF716FA002F2B7814BF0122D9
:1094E000002262F341032B7025D0781EC0B2FEF734
:1094F00023FE10B14378022B05D03368D8077FF5DF
:1095000065AF00BE62E7C2792B78DFF834B1511144
:1095100061F30413921162F345132B70B0F80280CB
:1095200000F1090780444FF0000AB84508D8454BC0
:109530000BB1FEF7D3FE02A9204600F09DF9F7E635
:109540007B780B2B02D13B781F44EEE7042BD4D160
:109550007B79022B04D0082BCFD14FF0010901E019
:109560004FF00009BB782B445A78FF2AC5D183F805
:1095700001900BEB4913ADF802A0DB680DF102027C
:109580003946204698470028B7D0BDF80200082881
:10959000B3D93A4600235178052909D192F802C07F
:1095A0000CF07F0105EB410101EBDC1181F811901A
:1095B00011780B449BB298420A44ECD80744B4E7B4
:1095C000BDF80A70F8B23F0A022F3FD00CD8012F25
:1095D0001ED09DF804000021FFF70CFA80219DF8B1
:1095E0000400FFF707FAA3E6032F3FD00F2FF0D1B7
:1095F000154B002BEDD0AFF30080022281180746F7
:109600000DEB020001F0EDF8BDF802303A4603E040
:10961000FEF78EFD1223024602A9204600F044F90F
:1096200000287FF485AED4E7F0ED00E084AD0020A3
:10963000B8AD0020E3820F00000000000000000031
:10964000F0B30F00DD820F0000000000FEF774FD94
:10965000804600283FF4BAAE3A46811C0DF1020064
:1096600001F0BFF8BDF802304246D5E7EE28B0D091
:10967000FEF78AFD024600283FF4A8AE0378CBE748
:10968000BDF80A30012BA4D12B7843F008032B70CE
:1096900051E7BDF80A30012B9BD12B786FF3C30340
:1096A000F5E72B78C3F340129B0803F00203134342
:1096B00004AA22F80E3D022303E79DF80C200F2A8E
:1096C00087D82A445278012A83D828B99DF80910EE
:1096D0000A290FD00B2911D0474F07EB42177869A1
:1096E00000F020F93B69002B3FF473AF02A920463C
:1096F000984795E704AA02F80E0DE2E69DF80A30B5
:10970000002B7FF463AE16E72F445F4404AA97F85A
:109710002130C3F3400322F80E3D02A90223204664
:1097200000F0C2F8344B03EB4919D9F81030002B84
:109730003FF461AE02A92046984700287FF4F8ADB7
:1097400059E6BDF80A301BB951462046FFF7CCFD5B
:1097500002A9204600F090F8E4E74FF00008E1E7A6
:109760009DF8081001F07F0005EB400303EBD113D7
:1097700093F821206FF3000283F8212038B9039B6E
:109780009DF809209DF8040000F0D2F8D0E55A7C3D
:10979000012A07D9194B1B68DA0700D500BE05B0AE
:1097A000BDE8F08F144B9DF8040003EB42139DF8C5
:1097B00009209C69039BA047BAE5114B002B3FF49D
:1097C000B7AD2878C0F3C000AFF30080B0E50D4B13
:1097D000002B3FF4ADADAFF30080A9E5029B002B59
:1097E0003FF4A6AD03989847A2E53368DB077FF501
:1097F0009FAD00BE9CE500BFF0B30F00F0ED00E0B0
:109800000000000000000000054B01F07F0203EBA8
:10981000420303EBD11191F82100C0F340007047DF
:1098200084AD002070B5124B9989DA898C1AA4B2E4
:10983000054693F90000402C28BF4024002809DA8F
:10984000914212D099680B48224600F0CAFF80214D
:10985000084A04E091424FF00001F9D1002223466A
:109860002846BDE87040FFF781B88021F6E700BFC9
:10987000BCAD0020D0AD002030B40A4C05460A46ED
:1098800008684968234603C30023C4E9023392F9F8
:1098900000209A4228461A46ACBF8021194630BCA7
:1098A000FFF764B8BCAD0020F8B5184D0C4607466C
:1098B00008684968AA602E4603C60021E981E1884C
:1098C0008B4228BF0B46AB8173B13AB9104B1B6872
:1098D000DA0701D40020F8BD00BEFBE73846FFF7E9
:1098E000A1FF68B10120F6E794F90020002AA8BF83
:1098F00080211A46B8BF00213846FFF737F8F0E755
:10990000034B1B68DB07E5D500BEE4E7BCAD0020D8
:10991000F0ED00E0142200210148FAF703BD00BF7A
:10992000BCAD0020014B1861704700BFBCAD0020EA
:1099300070B5294C1E462378C909B1EBD31F0546E3
:109940000AD00EB9012004E0244B1B68DA0701D4C9
:10995000002070BD00BEFBE794F90030002B06DB51
:10996000A0680028F4D032461D4900F03AFFA368F1
:10997000E28933443244A360E38892B29342E281A5
:1099800001D03F2E23D823699BB994F90030002BD6
:109990004FF000031A46ACBF802119462846FEF757
:1099A000E5FF0028CED10D4B1B68DB07D0D500BEEC
:1099B000CFE709492846984701460028E5D12846BF
:1099C000FFF718F880212846FFF714F8BAE7284671
:1099D000FFF728FFE5E700BFBCAD0020F0ED00E099
:1099E000D0AD002070B50D4E4FF40B6444433519D3
:1099F0000020E978FFF750FC70B96A8BAB8A9B1A9C
:109A00009BB23F2B08D904F503643219E97840234F
:109A1000BDE87040FFF72ABC70BD00BF10AE00204B
:109A200010B50446FFF726FB08B9002010BDFFF76C
:109A300029FB0028F9D1044B4FF40B6202FB0434DC
:109A4000207900F00100F1E710AE0020034A4FF446
:109A50000B6303FB0020408B704700BF10AE00205B
:109A600038B5084B04464FF40B6000FB043092B24B
:109A70001030FFF75FFA05462046FFF7B3FF284690
:109A800038BD00BF10AE002010B5054C4FF40B637D
:109A900003FB004092B22030FFF787FA10BD00BFF1
:109AA00010AE00202DE9F843194E4FF40B644443E7
:109AB00006EB0409804699F802100020FFF7ECFB42
:109AC000074610B10020BDE8F88304F5076504F1EE
:109AD00020003544402229463044FFF72BFA044643
